{
  "contractName": "Voting",
  "abi": [
    {
      "anonymous": false,
      "inputs": [
        {
          "indexed": false,
          "internalType": "int256",
          "name": "campaignId",
          "type": "int256"
        },
        {
          "indexed": false,
          "internalType": "address",
          "name": "creator",
          "type": "address"
        },
        {
          "indexed": false,
          "internalType": "int256",
          "name": "reward",
          "type": "int256"
        },
        {
          "indexed": false,
          "internalType": "int256",
          "name": "candidacyFee",
          "type": "int256"
        },
        {
          "indexed": false,
          "internalType": "int256",
          "name": "endVoteCount",
          "type": "int256"
        }
      ],
      "name": "CampaignCreated",
      "type": "event"
    },
    {
      "anonymous": false,
      "inputs": [
        {
          "indexed": false,
          "internalType": "int256",
          "name": "campaignId",
          "type": "int256"
        },
        {
          "indexed": false,
          "internalType": "address",
          "name": "candidate",
          "type": "address"
        }
      ],
      "name": "CandidacyDeclared",
      "type": "event"
    },
    {
      "anonymous": false,
      "inputs": [
        {
          "indexed": false,
          "internalType": "address",
          "name": "userAddress",
          "type": "address"
        }
      ],
      "name": "UserRegistered",
      "type": "event"
    },
    {
      "anonymous": false,
      "inputs": [
        {
          "indexed": false,
          "internalType": "int256",
          "name": "campaignId",
          "type": "int256"
        },
        {
          "indexed": false,
          "internalType": "address",
          "name": "voter",
          "type": "address"
        },
        {
          "indexed": false,
          "internalType": "address",
          "name": "candidate",
          "type": "address"
        }
      ],
      "name": "VoteCast",
      "type": "event"
    },
    {
      "inputs": [],
      "name": "campaignCount",
      "outputs": [
        {
          "internalType": "int256",
          "name": "",
          "type": "int256"
        }
      ],
      "stateMutability": "view",
      "type": "function",
      "constant": true
    },
    {
      "inputs": [
        {
          "internalType": "int256",
          "name": "",
          "type": "int256"
        }
      ],
      "name": "campaigns",
      "outputs": [
        {
          "internalType": "address",
          "name": "creator",
          "type": "address"
        },
        {
          "internalType": "int256",
          "name": "reward",
          "type": "int256"
        },
        {
          "internalType": "int256",
          "name": "candidacyFee",
          "type": "int256"
        },
        {
          "internalType": "int256",
          "name": "endVoteCount",
          "type": "int256"
        },
        {
          "internalType": "bool",
          "name": "ended",
          "type": "bool"
        },
        {
          "internalType": "address",
          "name": "winner",
          "type": "address"
        },
        {
          "internalType": "int256",
          "name": "totalVotes",
          "type": "int256"
        },
        {
          "internalType": "int256",
          "name": "candidatenum",
          "type": "int256"
        }
      ],
      "stateMutability": "view",
      "type": "function",
      "constant": true
    },
    {
      "inputs": [],
      "name": "candidacyfee",
      "outputs": [
        {
          "internalType": "int256",
          "name": "",
          "type": "int256"
        }
      ],
      "stateMutability": "view",
      "type": "function",
      "constant": true
    },
    {
      "inputs": [],
      "name": "candidates_max",
      "outputs": [
        {
          "internalType": "int256",
          "name": "",
          "type": "int256"
        }
      ],
      "stateMutability": "view",
      "type": "function",
      "constant": true
    },
    {
      "inputs": [
        {
          "internalType": "address",
          "name": "",
          "type": "address"
        }
      ],
      "name": "users",
      "outputs": [
        {
          "internalType": "address",
          "name": "userAddress",
          "type": "address"
        },
        {
          "internalType": "bool",
          "name": "isRegistered",
          "type": "bool"
        }
      ],
      "stateMutability": "view",
      "type": "function",
      "constant": true
    },
    {
      "inputs": [
        {
          "internalType": "int256",
          "name": "reward",
          "type": "int256"
        },
        {
          "internalType": "int256",
          "name": "candidacyFee",
          "type": "int256"
        },
        {
          "internalType": "int256",
          "name": "endVoteCount",
          "type": "int256"
        }
      ],
      "name": "createCampaign",
      "outputs": [],
      "stateMutability": "payable",
      "type": "function",
      "payable": true
    },
    {
      "inputs": [
        {
          "internalType": "int256",
          "name": "campaignId",
          "type": "int256"
        }
      ],
      "name": "declareCandidacy",
      "outputs": [],
      "stateMutability": "payable",
      "type": "function",
      "payable": true
    },
    {
      "inputs": [
        {
          "internalType": "int256",
          "name": "campaignId",
          "type": "int256"
        },
        {
          "internalType": "int256",
          "name": "candidate",
          "type": "int256"
        }
      ],
      "name": "vote",
      "outputs": [],
      "stateMutability": "payable",
      "type": "function",
      "payable": true
    },
    {
      "inputs": [
        {
          "internalType": "int256",
          "name": "campaignId",
          "type": "int256"
        }
      ],
      "name": "closeCampaign",
      "outputs": [],
      "stateMutability": "payable",
      "type": "function",
      "payable": true
    },
    {
      "inputs": [
        {
          "internalType": "int256",
          "name": "campaignId",
          "type": "int256"
        }
      ],
      "name": "getCampaignDetails",
      "outputs": [
        {
          "internalType": "int256",
          "name": "reward",
          "type": "int256"
        },
        {
          "internalType": "int256",
          "name": "candidacyFee",
          "type": "int256"
        },
        {
          "internalType": "int256",
          "name": "endVoteCount",
          "type": "int256"
        },
        {
          "internalType": "int256",
          "name": "totalVotes",
          "type": "int256"
        },
        {
          "internalType": "int256[]",
          "name": "candidatesArr",
          "type": "int256[]"
        },
        {
          "internalType": "int256",
          "name": "candidatenum",
          "type": "int256"
        }
      ],
      "stateMutability": "view",
      "type": "function",
      "constant": true
    },
    {
      "inputs": [],
      "name": "getCampaignAddress",
      "outputs": [
        {
          "internalType": "int256[]",
          "name": "campaignAddr",
          "type": "int256[]"
        },
        {
          "internalType": "int256",
          "name": "num",
          "type": "int256"
        }
      ],
      "stateMutability": "view",
      "type": "function",
      "constant": true
    },
    {
      "inputs": [],
      "name": "getUserNum",
      "outputs": [
        {
          "internalType": "int256",
          "name": "_usernum",
          "type": "int256"
        }
      ],
      "stateMutability": "view",
      "type": "function",
      "constant": true
    },
    {
      "inputs": [],
      "name": "registerUser",
      "outputs": [],
      "stateMutability": "nonpayable",
      "type": "function"
    }
  ],
  "bytecode": "0x6080604052600060015560006003556064600455600160055534801561002457600080fd5b5061128a806100346000396000f3fe6080604052600436106100c25760003560e01c80639cefc23e1161007f578063c667e25511610059578063c667e255146101dc578063cdce5206146101f1578063f5ca561714610206578063f64bc6ab14610238576100c2565b80639cefc23e14610157578063a87430ba1461018b578063acfb8757146101b9576100c2565b80631decdd32146100c757806345932a8e146100f25780634d3820eb1461010757806369f747141461011c5780637274e30d1461012f578063876aa7f314610144575b600080fd5b3480156100d357600080fd5b506100dc61024b565b6040516100e99190610e7c565b60405180910390f35b610105610100366004610d41565b610251565b005b34801561011357600080fd5b5061010561037d565b61010561012a366004610d59565b610430565b34801561013b57600080fd5b506100dc6105fc565b610105610152366004610d41565b610602565b34801561016357600080fd5b50610177610172366004610d41565b610811565b6040516100e9989796959493929190610e0e565b34801561019757600080fd5b506101ab6101a6366004610d13565b610863565b6040516100e9929190610df3565b3480156101c557600080fd5b506101ce61088a565b6040516100e9929190610e5a565b3480156101e857600080fd5b506100dc610962565b3480156101fd57600080fd5b506100dc610968565b34801561021257600080fd5b50610226610221366004610d41565b61096e565b6040516100e996959493929190610ee7565b610105610246366004610d7a565b610a5f565b60055481565b600081815260208190526040902080546001600160a01b031633146102915760405162461bcd60e51b815260040161028890611008565b60405180910390fd5b600481015460ff1615156001146102ba5760405162461bcd60e51b8152600401610288906110c6565b600481015461010090046001600160a01b03166102e95760405162461bcd60e51b81526004016102889061108f565b60018101546102f9600a826111ee565b90508047101561031b5760405162461bcd60e51b815260040161028890610f51565b60048201546040516001600160a01b0361010090920491909116903480156108fc02916000818181858888f1935050505015801561035d573d6000803e3d6000fd5b505060006001808301919091556004909101805460ff1916909117905550565b33600090815260026020526040902054600160a01b900460ff16156103b45760405162461bcd60e51b815260040161028890611180565b33600081815260026020526040812080546001600160a01b031960ff60a01b19909116600160a01b1716909217825560018054916103f18361120e565b91905055507f54db7a5cb4735e1aac1f53db512d3390390bb6637bd30ad4bf9fc98667d9b9b9336040516104259190610ddf565b60405180910390a150565b60008281526020819052604081206006810180549192918490811061046557634e487b7160e01b600052603260045260246000fd5b60009182526020909120015460048301546001600160a01b03909116915060ff16156104a35760405162461bcd60e51b815260040161028890610f25565b6001600160a01b038116600090815260088301602052604090205460ff166104dd5760405162461bcd60e51b815260040161028890610fa6565b336000908152600a8301602052604090205460ff161561050f5760405162461bcd60e51b8152600401610288906110fd565b6001600160a01b038116600090815260098301602052604081208054916105358361120e565b9091555050336000908152600a830160205260408120805460ff19166001179055600583018054916105668361120e565b919050555081600301548260050154126105bb5760048201805460ff1916600117905561059284610b98565b8260040160016101000a8154816001600160a01b0302191690836001600160a01b031602179055505b7fb6951bb6191baf95a2c34771f457b563a3d6c43a565983a578ed0e285f70f6128433836040516105ee93929190610e9c565b60405180910390a150505050565b60035481565b6000818152602081905260409020600481015460ff16156106355760405162461bcd60e51b815260040161028890610f25565b336000908152600a8201602052604090205460ff16156106675760405162461bcd60e51b815260040161028890610fd1565b60045481600701541261068c5760405162461bcd60e51b8152600401610288906111b7565b33600090815260026020526040902054600160a01b900460ff166106c25760405162461bcd60e51b815260040161028890611058565b33600090815260088201602052604090205460ff16156106f45760405162461bcd60e51b815260040161028890611134565b3360009081526008820160209081526040808320805460ff1916600190811790915560098501909252822055600582018054916107308361120e565b9190505550338160060182600701548154811061075d57634e487b7160e01b600052603260045260246000fd5b6000918252602082200180546001600160a01b0319166001600160a01b039390931692909217909155600782018054916107968361120e565b909155505080546040516001600160a01b03909116903480156108fc02916000818181858888f193505050501580156107d3573d6000803e3d6000fd5b507f2717799a0c3c452d1df1a27bf7bc6a12f18aff6200fe721997facfe36f6c26db8233604051610805929190610e85565b60405180910390a15050565b60006020819052908152604090208054600182015460028301546003840154600485015460058601546007909601546001600160a01b039586169694959394929360ff83169361010090930416919088565b6002602052600090815260409020546001600160a01b03811690600160a01b900460ff1682565b606060008060035467ffffffffffffffff8111156108b857634e487b7160e01b600052604160045260246000fd5b6040519080825280602002602001820160405280156108e1578160200160208202803683370190505b5090506000805b6003548212156109575760008281526020819052604090206004015460ff16610945578183828151811061092c57634e487b7160e01b600052603260045260246000fd5b6020908102919091010152806109418161120e565b9150505b8161094f8161120e565b9250506108e8565b919350909150509091565b60045481565b60015490565b600080600080606060008060008089815260200190815260200160002090506000816007015467ffffffffffffffff8111156109ba57634e487b7160e01b600052604160045260246000fd5b6040519080825280602002602001820160405280156109e3578160200160208202803683370190505b50905060005b8151811015610a305780828281518110610a1357634e487b7160e01b600052603260045260246000fd5b602090810291909101015280610a288161122e565b9150506109e9565b506001820154600283015460038401546005850154600790950154929c919b5099509297509095509350915050565b33600090815260026020526040902054600160a01b900460ff16610a955760405162461bcd60e51b815260040161028890611058565b6003805460008181526020819052604081209290610ab28361120e565b909155505080546001600160a01b031916331781556001810184905560028101839055600381018290556004808201805460ff1916905560006005830181905560078301555467ffffffffffffffff811115610b1e57634e487b7160e01b600052604160045260246000fd5b604051908082528060200260200182016040528015610b47578160200160208202803683370190505b508051610b5e916006840191602090910190610c99565b507f62497047869e556a5a9163e48cb4b47629deb089d4c600b20e5c1abaed06d290600354338686866040516105ee959493929190610ebb565b60008181526020819052604081206006810180548391908290610bcb57634e487b7160e01b600052603260045260246000fd5b60009182526020808320909101546001600160a01b03168083526009850190915260409091205490915060015b8360070154811215610c8f576000846006018281548110610c2957634e487b7160e01b600052603260045260246000fd5b60009182526020808320909101546001600160a01b031680835260098801909152604090912054909150831215610c7c576001600160a01b03811660009081526009860160205260409020549093509150825b5080610c878161120e565b915050610bf8565b5090949350505050565b828054828255906000526020600020908101928215610cee579160200282015b82811115610cee57825182546001600160a01b0319166001600160a01b03909116178255602090920191600190910190610cb9565b50610cfa929150610cfe565b5090565b5b80821115610cfa5760008155600101610cff565b600060208284031215610d24578081fd5b81356001600160a01b0381168114610d3a578182fd5b9392505050565b600060208284031215610d52578081fd5b5035919050565b60008060408385031215610d6b578081fd5b50508035926020909101359150565b600080600060608486031215610d8e578081fd5b505081359360208301359350604090920135919050565b6000815180845260208085019450808401835b83811015610dd457815187529582019590820190600101610db8565b509495945050505050565b6001600160a01b0391909116815260200190565b6001600160a01b039290921682521515602082015260400190565b6001600160a01b039889168152602081019790975260408701959095526060860193909352901515608085015290931660a083015260c082019290925260e08101919091526101000190565b600060408252610e6d6040830185610da5565b90508260208301529392505050565b90815260200190565b9182526001600160a01b0316602082015260400190565b9283526001600160a01b03918216602084015216604082015260600190565b9485526001600160a01b0393909316602085015260408401919091526060830152608082015260a00190565b600087825286602083015285604083015284606083015260c06080830152610f1260c0830185610da5565b90508260a0830152979650505050505050565b60208082526012908201527110d85b5c185a59db881a185cc8195b99195960721b604082015260600190565b60208082526035908201527f4e6f7420656e6f7567682062616c616e636520696e2074686520636f6e74726160408201527418dd081d1bc81d1c985b9cd9995c881c995dd85c99605a1b606082015260800190565b602080825260119082015270496e76616c69642063616e64696461746560781b604082015260600190565b6020808252601f908201527f566f7465722063616e6e6f74206265636f6d6520612063616e64696461746500604082015260600190565b60208082526030908201527f4f6e6c79207468652063616d706169676e2063726561746f722063616e20636c60408201526f37b9b2903a34329031b0b6b830b4b3b760811b606082015260800190565b60208082526017908201527f55736572206d7573742062652072656769737465726564000000000000000000604082015260600190565b6020808252601a908201527f57696e6e6572206164647265737320697320696e76616c696421000000000000604082015260600190565b6020808252601f908201527f43616d706169676e206d75737420626520656e64656420746f20636c6f736500604082015260600190565b60208082526017908201527f566f7465722068617320616c726561647920766f746564000000000000000000604082015260600190565b6020808252602c908201527f43616d706169676e2063616e6e6f74206265206465636c61726564206d6f726560408201526b207468616e2074776963652160a01b606082015260800190565b6020808252601a908201527f5573657220697320616c72656164792072656769737465726564000000000000604082015260600190565b6020808252601e908201527f43616e646964617465206e756d206861732072656163686564206d6178210000604082015260600190565b60008261120957634e487b7160e01b81526012600452602481fd5b500490565b60006001600160ff1b038214156112275761122761123e565b5060010190565b6000600019821415611227576112275b634e487b7160e01b600052601160045260246000fdfea264697066735822122000ba4a19cc5ed81c78d15a18a588f447cde38e6c6d8ee89d7070ed899b1b7fa364736f6c63430008000033",
  "immutableReferences": {},
  "source": "// SPDX-License-Identifier: MIT\npragma solidity ^0.8.0;\n\ncontract Voting {\n    struct Campaign {\n        address creator;\n        int reward;\n        int candidacyFee;\n        int endVoteCount;\n        bool ended;\n        address winner;\n        int totalVotes;\n        address[] candidatesList;\n        int candidatenum;\n        mapping(address => bool) candidates;\n        mapping(address => int) votes;\n        mapping(address => bool) hasVoted;\n    }\n\n    struct Vote {\n        address candidate;\n        int votenum;\n    }\n\n    struct CampaignData {\n        address creator;\n        int reward;\n        int candidacyFee;\n        int endVoteCount;\n        int totalVotes;\n        Vote[] candvotes;\n    }\n\n    struct User {\n        address userAddress;\n        bool isRegistered;\n    }\n\n    mapping(int => Campaign) public campaigns;\n    int usernum = 0;\n    mapping(address => User) public users;\n    int public campaignCount = 0;\n    int public candidates_max = 100;\n    int public candidacyfee = 1;\n\n    event CampaignCreated(int campaignId, address creator, int reward, int candidacyFee, int endVoteCount);\n    event CandidacyDeclared(int campaignId, address candidate);\n    event VoteCast(int campaignId, address voter, address candidate);\n    event UserRegistered(address userAddress);\n    // event CampaignsGot();\n\n    // Function to create a new campaign\n    function createCampaign(int reward, int candidacyFee, int endVoteCount) public payable {\n        // require(msg.value == reward + candidacyFee, \"Reward and candidacy fee must be transferred to the contract\");\n        require(users[msg.sender].isRegistered, \"User must be registered\");\n\n        Campaign storage newCampaign = campaigns[campaignCount];\n        campaignCount++;\n        newCampaign.creator = msg.sender;\n        newCampaign.reward = reward;\n        newCampaign.candidacyFee = candidacyFee;\n        newCampaign.endVoteCount = endVoteCount;\n        newCampaign.ended = false;\n        newCampaign.totalVotes = 0;\n        newCampaign.candidatenum = 0;\n        newCampaign.candidatesList = new address[](uint256(candidates_max));\n\n        // campaigns[uint256(campaignCount)] = newCampaign;\n\n        emit CampaignCreated(campaignCount, msg.sender, reward, candidacyFee, endVoteCount);\n    }\n\n    // Function to declare candidacy for a campaign\n    function declareCandidacy(int campaignId) public payable {\n        Campaign storage campaign = campaigns[campaignId];\n        require(!campaign.ended, \"Campaign has ended\");\n        require(!campaign.hasVoted[msg.sender], \"Voter cannot become a candidate\");\n        require(campaign.candidatenum < candidates_max, \"Candidate num has reached max!\");\n        // require(msg.value == campaign.candidacyFee, \"Candidacy fee must be transferred to the creator\");\n        require(users[msg.sender].isRegistered, \"User must be registered\");\n        require(!campaign.candidates[msg.sender], \"Campaign cannot be declared more than twice!\");\n\n        campaign.candidates[msg.sender] = true;\n        campaign.votes[msg.sender] = 1;\n        campaign.totalVotes ++;\n        campaign.candidatesList[uint256(campaign.candidatenum)] = msg.sender;\n        campaign.candidatenum ++;\n        // payable(campaign.creator).transfer(uint256(campaign.candidacyFee) / 10);\n        payable(campaign.creator).transfer(msg.value);\n\n        emit CandidacyDeclared(campaignId, msg.sender);\n    }\n\n    // Function to cast a vote\n    function vote(int campaignId, int candidate) public payable {\n        Campaign storage campaign = campaigns[campaignId];\n        address candaddr = campaign.candidatesList[uint256(candidate)];\n        require(!campaign.ended, \"Campaign has ended\");\n        require(campaign.candidates[candaddr], \"Invalid candidate\");\n        require(!campaign.hasVoted[msg.sender], \"Voter has already voted\");\n        // require(msg.value == 1 ether, \"Voting fee is 1 ETH\");\n        // require(users[msg.sender].isRegistered, \"User must be registered\");\n        // require(msg.sender != candaddr, \"You cannot vote to yourself!\");\n\n        campaign.votes[candaddr]++;\n        campaign.hasVoted[msg.sender] = true;\n        campaign.totalVotes++;\n\n        if (campaign.totalVotes >= campaign.endVoteCount) {\n            campaign.ended = true;\n            campaign.winner = findWinner(campaignId);\n        }\n\n        emit VoteCast(campaignId, msg.sender, candaddr);\n    }\n\n    // Function to close a campaign and send reward to winner\n    function closeCampaign(int campaignId) public payable {\n        Campaign storage campaign = campaigns[campaignId];\n        require(campaign.creator == msg.sender, \"Only the campaign creator can close the campaign\");\n        require(campaign.ended == true, \"Campaign must be ended to close\");\n        require(campaign.winner != address(0), \"Winner address is invalid!\");\n        uint256 rewardAmount = uint256(campaign.reward);\n        rewardAmount = rewardAmount / 10;\n        require(address(this).balance >= rewardAmount, \"Not enough balance in the contract to transfer reward\");\n\n\n        // payable(campaign.winner).transfer(rewardAmount);\n        payable(campaign.winner).transfer(msg.value);\n        campaign.reward = 0; // Clear reward after sending\n        campaign.ended = true;\n    }\n\n    // Function to find the winner of a campaign\n    function findWinner(int campaignId) internal view returns (address) {\n        Campaign storage campaign = campaigns[campaignId];\n        address winner = campaign.candidatesList[0];\n        int highestVotes = campaign.votes[winner];\n\n        for (int i = 1; i < int(campaign.candidatenum); i++) {\n            address candidate = campaign.candidatesList[uint256(i)];\n            if (campaign.votes[candidate] > highestVotes) {\n                highestVotes = campaign.votes[candidate];\n                winner = candidate;\n            }\n        }\n\n        return winner;\n    }\n\n    // Function to get campaign details by campaignId\n    function getCampaignDetails(int campaignId) public view returns (\n        int reward,\n        int candidacyFee,\n        int endVoteCount,\n        int totalVotes,\n        int[] memory candidatesArr,\n        int candidatenum\n    ) {\n        Campaign storage campaign = campaigns[campaignId];\n        int[] memory _candidatesArr = new int[](uint256(campaign.candidatenum));\n        for (uint i = 0; i < _candidatesArr.length; i++) {\n            _candidatesArr[i] = int(i);\n        }\n        return (\n            campaign.reward,\n            campaign.candidacyFee,\n            campaign.endVoteCount,\n            campaign.totalVotes,\n            _candidatesArr,\n            campaign.candidatenum\n        );\n    }\n\n    \n    function getCampaignAddress() public view returns (int[] memory campaignAddr, int num) {\n        int[] memory __campaignAddr = new int[](uint256(campaignCount));\n        int i;\n        int _num = 0;\n        for (i = 0; i < campaignCount; i++) {\n            if (campaigns[i].ended == false) {\n                __campaignAddr[uint256(_num)] = i;\n                _num ++;\n            }\n        }\n        return (__campaignAddr, _num);\n    }\n\n    function getUserNum() public view returns (int _usernum) {\n        return usernum;\n    }\n\n    // Function to register a new user\n    function registerUser() public {\n        require(!users[msg.sender].isRegistered, \"User is already registered\");\n        User storage user = users[msg.sender];\n        user.isRegistered = true;\n        user.userAddress = msg.sender;\n        // users[msg.sender] = User(msg.sender, true);\n        usernum++;\n        emit UserRegistered(msg.sender);\n    }\n}\n",
  "sourcePath": "/Users/mayechi/MAJOR/s-junior/voting-system-2_backupo/contracts/Voting.sol",
  "compiler": {
    "name": "solc",
    "version": "0.8.0+commit.c7dfd78e.Emscripten.clang"
  },
  "schemaVersion": "3.4.16",
  "updatedAt": "2024-06-23T10:55:43.420Z",
  "networkType": "ethereum",
  "devdoc": {
    "kind": "dev",
    "methods": {},
    "version": 1
  },
  "userdoc": {
    "kind": "user",
    "methods": {},
    "version": 1
  }
}